S00D0000525443414D2E73726563A0
S11300000C942A000C9447000C9447000C9447006D
S11300100C9447000C9447000C9447000C94470040
S11300200C9447000C9447000C9447000C94470030
S11300300C9447000C9447000C9447000C94470020
S11300400C9447000C9447000C9447000C94470010
S11300500C94470011241FBECFE5D8E0DEBFCDBF0E
S113006010E0A0E6B0E0E6ECFCE002C005900D92E2
S1130070A63FB107D9F710E0A6EFB0E001C01D928A
S1130080A63FB107E1F70E94F5040C9461060C94B5
S11300900000843409F471C0853448F4823499F141
S11300A0833408F04DC0813409F083C00FC0823618
S11300B051F1833620F4813609F07BC007C08336C2
S11300C009F43EC0843609F074C057C0413069F465
S11300D02AB381E090E0AC0102C0440F551F6A9539
S11300E0E2F7BA01622B6ABB08952AB381E090E07B
S11300F0AC0102C0440F551F6A95E2F7BA0160953E
S113010062236ABB0895413069F427B381E090E02B
S1130110AC0102C0440F551F6A95E2F7BA01622B85
S113012067BB089527B381E090E0AC0102C0440F9F
S1130130551F6A95E2F7BA016095622367BB08957B
S1130140413069F424B381E090E0AC0102C0440F73
S1130150551F6A95E2F7BA01622B64BB089524B374
S113016081E090E0AC0102C0440F551F6A95E2F7AC
S1130170BA016095622364BB0895413069F421B3E8
S113018081E090E0AC0102C0440F551F6A95E2F78C
S1130190BA01622B61BB089521B381E090E0AC0108
S11301A002C0440F551F6A95E2F7BA0160956223B5
S11301B061BB0895843409F471C0853448F48234F1
S11301C099F1833408F04DC0813409F083C00FC025
S11301D0823651F1833620F4813609F07BC007C0A2
S11301E0833609F43EC0843609F074C057C04130E8
S11301F069F42BB381E090E0AC0102C0440F551FB9
S11302006A95E2F7BA01622B6BBB08952BB381E0C8
S113021090E0AC0102C0440F551F6A95E2F7BA01A1
S1130220609562236BBB0895413069F428B381E083
S113023090E0AC0102C0440F551F6A95E2F7BA0181
S1130240622B68BB089528B381E090E0AC0102C042
S1130250440F551F6A95E2F7BA016095622368BBA3
S11302600895413069F425B381E090E0AC0102C007
S1130270440F551F6A95E2F7BA01622B65BB0895D6
S113028025B381E090E0AC0102C0440F551F6A958C
S1130290E2F7BA016095622365BB0895413069F4C1
S11302A022B381E090E0AC0102C0440F551F6A956F
S11302B0E2F7BA01622B62BB089522B381E090E0B9
S11302C0AC0102C0440F551F6A95E2F7BA0160956C
S11302D0622362BB0895843409F43DC0853440F43C
S11302E08234F9F0833450F5813409F040C00CC0F5
S11302F08236B9F0833618F48136C9F505C08336E1
S1130300E9F08436A1F527C02BB381E090E0AC017D
S113031002C0440F551F6A95E2F7BA0162276BBB0E
S1130320089528B381E090E0AC0102C0440F551F4A
S11303306A95E2F7BA01622768BB089525B381E0A4
S113034090E0AC0102C0440F551F6A95E2F7BA0170
S1130350622765BB089522B381E090E0AC0102C03E
S1130360440F551F6A95E2F7BA01622762BB0895EC
S1130370843409F44EC0853440F4823431F183343A
S1130380B0F5813409F057C00EC08236F1F08336DF
S113039020F4813609F04FC006C0833641F184361B
S11303A009F049C036C029B381E090E0062E02C0AE
S11303B0880F991F0A94E2F730E08223932302C046
S11303C0959587956A95E2F7089526B381E090E0C4
S11303D0062E02C0880F991F0A94E2F730E08223A8
S11303E0932302C0959587956A95E2F7089523B300
S11303F081E090E0062E02C0880F991F0A94E2F76C
S113040030E08223932302C0959587956A95E2F79D
S1130410089520B381E090E0062E02C0880F991F52
S11304200A94E2F730E08223932302C095958795DE
S11304306A95E2F7089580E008958434D9F085340C
S113044038F4823499F0833498F48134A1F40CC0E4
S1130450823661F0833618F4813669F405C0833638
S113046039F0843641F406C06ABB089567BB089529
S113047064BB089561BB08958434D9F0853438F49D
S1130480823499F0833498F48134A1F40CC0823618
S113049061F0833618F4813669F405C0833639F087
S11304A0843641F406C06BBB089568BB089565BBF0
S11304B0089562BB08958434D9F0853438F48234C5
S11304C099F0833498F48134A9F40CC0823661F035
S11304D0833618F4813671F405C0833639F08436D6
S11304E049F406C089B3089586B3089583B3089583
S11304F080B3089580E00895843409F1853438F494
S11305008234A9F08334B8F48134E1F40CC0823627
S113051071F0833618F48136A9F405C0833659F096
S1130520843681F40CC08BB380958BBB089588B35B
S1130530809588BB089585B3809585BB089582B363
S1130540809582BB0895843409F471C0853448F4DD
S1130550823499F1833408F04DC0813409F083C0AA
S11305600FC0823651F1833620F4813609F07BC006
S113057007C0833609F43EC0843609F074C057C0FE
S1130580413069F42BB381E090E0AC0102C0440F28
S1130590551F6A95E2F7BA01622B6BBB08952BB322
S11305A081E090E0AC0102C0440F551F6A95E2F768
S11305B0BA01609562236BBB0895413069F428B396
S11305C081E090E0AC0102C0440F551F6A95E2F748
S11305D0BA01622B68BB089528B381E090E0AC01B6
S11305E002C0440F551F6A95E2F7BA016095622371
S11305F068BB0895413069F425B381E090E0AC0113
S113060002C0440F551F6A95E2F7BA01622B65BB1D
S1130610089525B381E090E0AC0102C0440F551F5A
S11306206A95E2F7BA016095622365BB089541308B
S113063069F422B381E090E0AC0102C0440F551F7D
S11306406A95E2F7BA01622B62BB089522B381E096
S113065090E0AC0102C0440F551F6A95E2F7BA015D
S11306606095622362BB08956F70843451F18534C0
S113067038F48234C1F08334E8F4813441F50CC099
S1130680823689F0833618F4813609F505C083363D
S113069089F08436E1F415C08BB3807F8BBB8BB3B8
S11306A0682B6BBB089588B3807F88BB88B3682BA5
S11306B068BB089585B3807F85BB85B3682B65BB14
S11306C0089582B3807F82BB82B3682B62BB089596
S11306D06295607F843451F1853438F48234C1F0FA
S11306E08334E8F4813441F50CC0823689F08336D2
S11306F018F4813609F505C0833689F08436E1F4AF
S113070015C08BB38F708BBB8BB3682B6BBB0895F9
S113071088B38F7088BB88B3682B68BB089585B392
S11307208F7085BB85B3682B65BB089582B38F70CA
S113073082BB82B3682B62BB0895CF93C82F6FE04E
S11307400E941D028C2F64E041E00E94A3028C2FC2
S113075065E041E00E94A3028C2F66E041E00E9424
S1130760A3028C2F67E041E00E94A302CF91089579
S1130770CF92DF92FF920F931F93CF93DF93CDB766
S1130780DEB760970FB6F894DEBF0FBECDBFF82E6C
S1130790DE011196E0E6F0E080E101900D928150D7
S11307A0E1F7CC24DD248F2D6FE00E9434038F2DDC
S11307B06C2D40E00E94DA0010E0012F0C5F8F2DB9
S11307C0602F0E94B8018823B9F48F2D602F0E94F6
S11307D0B8018823D1F3F601EE0FFF1FEE0FFF1FC0
S11307E0E10FF11D81E090E08C0F9D1FE80FF91FD0
S11307F080818F3F21F00BC01F5F1430F1F6089405
S1130800C11CD11C94E0C916D10469F68FEF60961F
S11308100FB6F894DEBF0FBECDBFDF91CF911F910D
S11308200F91FF90DF90CF90089582E460E041E063
S11308300E94DA008FE99FE00197F1F700C0000001
S113084082E460E040E00E94DA008FE99FE00197D3
S1130850F1F700C000000895CF93C82F82E461E04F
S113086040E00E94DA006C2F62956F7081E40E9470
S113087068030E94150481E46C2F0E9468030E949F
S113088015048FEC97E00197F1F700C00000CF91B9
S113089008958FEF91EEA4E081509040A040E1F7DD
S11308A000C0000081E464E041E00E94490081E46A
S11308B065E041E00E94490081E466E041E00E9475
S11308C0490081E467E041E00E94490082E460E07D
S11308D041E00E94490082E461E041E00E94490055
S11308E082E462E041E00E94490082E462E040E088
S11308F00E94DA0082E00E942C04AFE1BEE411976A
S1130900F1F700C0000088E20E942C048FEC97E00D
S11309100197F1F700C000008CE00E942C04AFECBA
S1130920B7E01197F1F700C0000081E00E942C04A9
S11309308FE19EE40197F1F700C0000086E00E9479
S11309402C04AFECB7E01197F1F700C00000089554
S1130950CF93C82F82E461E041E00E94DA006C2F5B
S113096062956F7081E40E9468030E94150481E41B
S11309706C2F0E9468030E941504CF910895CF93B1
S1130980DF93EC018881882331F021960E94A8042A
S113099089918823D9F7DF91CF91089581E00E944E
S11309A02C048FE19EE40197F1F700C00000089544
S11309B0982F9150923068F4653158F4662349F0C9
S11309C0813019F4862F815802C0862F81540E94E9
S11309D02C040895803420F080E80E942C040895AB
S11309E080648F770E942C0408950E94490483E454
S11309F00E949D0360E875E280E090E00E94FC059F
S1130A0080E790E00E94BF0482E061E00E94D80485
S1130A108DE790E00E94BF040F2EF7EA8F2EF0E0DE
S1130A209F2EF02D0FE810E00F2EF8EBEF2EF0E0E4
S1130A30FF2EF02D0F2EF7EDCF2EF0E0DF2EF02D50
S1130A400F2EF9E9AF2EF0E0BF2EF02D0F2EF3EEAE
S1130A506F2EF0E07F2EF02D0F2EF4EC4F2EF0E0F1
S1130A605F2EF02D0E9423068133E1F70E94CE040D
S1130A70C8010E94BF0481E068E00E94D8048FEF9F
S1130A800E941F0683E40E94B803D82F8F3FD1F33E
S1130A900E94A80483E40E94B803C82F8F3FD1F3B7
S1130AA00E94A804DD0F8D2F880F880F8D0F8051B1
S1130AB08C0F8831B0F00E94CE04C5010E94BF049F
S1130AC082E061E00E94D804C4010E94BF048FEF59
S1130AD099E6A8E181509040A040E1F700C00000F1
S1130AE0C5CF0E941F060E94CE04C7010E94BF0406
S1130AF081E06AE00E94D8048FEF0E941F0683E41D
S1130B000E94B803D82F8F3FD1F30E94A80483E436
S1130B100E94B803C82F8F3FD1F30E94A804DD0FB1
S1130B208D2F880F880F8D0F80518C0F8C33B0F070
S1130B300E94CE04C5010E94BF0482E061E00E94CD
S1130B40D804C2010E94BF048FEF99E6A8E1815046
S1130B509040A040E1F700C00000C5CF0E941F06EE
S1130B600E94CE04C6010E94BF0481E06AE00E9494
S1130B70D8048FEF0E941F0683E40E94B803D82F85
S1130B808F3FD1F30E94A80483E40E94B803C82FC6
S1130B908F3FD1F30E94A804DD0F8D2F880F880F9B
S1130BA08D0F80518C0F8C33B0F00E94CE04C501A0
S1130BB00E94BF0482E061E00E94D804C3010E9445
S1130BC0BF048FEF99E6A8E181509040A040E1F77F
S1130BD000C00000C5CF0E941F060E94CE0480E71B
S1130BE090E00E94BF0482E061E00E94D8048DE797
S1130BF090E00E94BF0436CFDC01CB01880F991F1F
S1130C00AA1FBB1F880F991FAA1FBB1F9C01AD0100
S1130C10220F331F441F551F220F331F441F551F1C
S1130C2060E072E18AE790E00E943F062150304084
S1130C3030BD29B9539A549A86E880BD08955D9BC6
S1130C40FECF8CB908955F9BFECF8CB10895CF93EE
S1130C50DF93EC018881882379F021960E941F0696
S1130C608FEF90E7A2E081509040A040E1F700C0F0
S1130C7000008991882391F7DF91CF910895A1E233
S1130C801A2EAA1BBB1BFD010DC0AA1FBB1FEE1F02
S1130C90FF1FA217B307E407F50720F0A21BB30B4D
S1130CA0E40BF50B661F771F881F991F1A9469F7C9
S1130CB060957095809590959B01AC01BD01CF0125
S1090CC00895F894FFCF33
S1130CC63738392F3435362A3132332B41303D2DDE
S1130CD6546F2073657420636C6F636B00506C658E
S1130CE66173652050757368205265736574004896
S1130CF66F7572733A202D2D0057726F6E672043FD
S1130D06686F6963652100686F757273206D75730A
S1130D16742062653C3234004D696E757465733AAD
S1130D26202D2D006D696E75746573206D75737451
S1130D362062653C3630005365636F6E64733A20F7
S1130D462D2D007365636F6E6473206D7573742047
S1090D5662653C3630002A
S9030000FC
