S00B00005254432E7372656330
S11300000C942A000C9447000C9447000C9447006D
S11300100C9447000C944C060C9447000C94470035
S11300200C9447000C9447000C9447000C94470030
S11300300C9447000C9447000C9447000C94470020
S11300400C9447000C9447000C9447000C94470010
S11300500C94470011241FBECFE5D8E0DEBFCDBF0E
S113006010E0A0E6B0E0ECEAFEE002C005900D92DC
S1130070A63CB107D9F710E0A6ECB0E001C01D9290
S1130080A73CB107E1F70E94F5040C9454070C94C3
S11300900000843409F471C0853448F4823499F141
S11300A0833408F04DC0813409F083C00FC0823618
S11300B051F1833620F4813609F07BC007C08336C2
S11300C009F43EC0843609F074C057C0413069F465
S11300D02AB381E090E0AC0102C0440F551F6A9539
S11300E0E2F7BA01622B6ABB08952AB381E090E07B
S11300F0AC0102C0440F551F6A95E2F7BA0160953E
S113010062236ABB0895413069F427B381E090E02B
S1130110AC0102C0440F551F6A95E2F7BA01622B85
S113012067BB089527B381E090E0AC0102C0440F9F
S1130130551F6A95E2F7BA016095622367BB08957B
S1130140413069F424B381E090E0AC0102C0440F73
S1130150551F6A95E2F7BA01622B64BB089524B374
S113016081E090E0AC0102C0440F551F6A95E2F7AC
S1130170BA016095622364BB0895413069F421B3E8
S113018081E090E0AC0102C0440F551F6A95E2F78C
S1130190BA01622B61BB089521B381E090E0AC0108
S11301A002C0440F551F6A95E2F7BA0160956223B5
S11301B061BB0895843409F471C0853448F48234F1
S11301C099F1833408F04DC0813409F083C00FC025
S11301D0823651F1833620F4813609F07BC007C0A2
S11301E0833609F43EC0843609F074C057C04130E8
S11301F069F42BB381E090E0AC0102C0440F551FB9
S11302006A95E2F7BA01622B6BBB08952BB381E0C8
S113021090E0AC0102C0440F551F6A95E2F7BA01A1
S1130220609562236BBB0895413069F428B381E083
S113023090E0AC0102C0440F551F6A95E2F7BA0181
S1130240622B68BB089528B381E090E0AC0102C042
S1130250440F551F6A95E2F7BA016095622368BBA3
S11302600895413069F425B381E090E0AC0102C007
S1130270440F551F6A95E2F7BA01622B65BB0895D6
S113028025B381E090E0AC0102C0440F551F6A958C
S1130290E2F7BA016095622365BB0895413069F4C1
S11302A022B381E090E0AC0102C0440F551F6A956F
S11302B0E2F7BA01622B62BB089522B381E090E0B9
S11302C0AC0102C0440F551F6A95E2F7BA0160956C
S11302D0622362BB0895843409F43DC0853440F43C
S11302E08234F9F0833450F5813409F040C00CC0F5
S11302F08236B9F0833618F48136C9F505C08336E1
S1130300E9F08436A1F527C02BB381E090E0AC017D
S113031002C0440F551F6A95E2F7BA0162276BBB0E
S1130320089528B381E090E0AC0102C0440F551F4A
S11303306A95E2F7BA01622768BB089525B381E0A4
S113034090E0AC0102C0440F551F6A95E2F7BA0170
S1130350622765BB089522B381E090E0AC0102C03E
S1130360440F551F6A95E2F7BA01622762BB0895EC
S1130370843409F44EC0853440F4823431F183343A
S1130380B0F5813409F057C00EC08236F1F08336DF
S113039020F4813609F04FC006C0833641F184361B
S11303A009F049C036C029B381E090E0062E02C0AE
S11303B0880F991F0A94E2F730E08223932302C046
S11303C0959587956A95E2F7089526B381E090E0C4
S11303D0062E02C0880F991F0A94E2F730E08223A8
S11303E0932302C0959587956A95E2F7089523B300
S11303F081E090E0062E02C0880F991F0A94E2F76C
S113040030E08223932302C0959587956A95E2F79D
S1130410089520B381E090E0062E02C0880F991F52
S11304200A94E2F730E08223932302C095958795DE
S11304306A95E2F7089580E008958434D9F085340C
S113044038F4823499F0833498F48134A1F40CC0E4
S1130450823661F0833618F4813669F405C0833638
S113046039F0843641F406C06ABB089567BB089529
S113047064BB089561BB08958434D9F0853438F49D
S1130480823499F0833498F48134A1F40CC0823618
S113049061F0833618F4813669F405C0833639F087
S11304A0843641F406C06BBB089568BB089565BBF0
S11304B0089562BB08958434D9F0853438F48234C5
S11304C099F0833498F48134A9F40CC0823661F035
S11304D0833618F4813671F405C0833639F08436D6
S11304E049F406C089B3089586B3089583B3089583
S11304F080B3089580E00895843409F1853438F494
S11305008234A9F08334B8F48134E1F40CC0823627
S113051071F0833618F48136A9F405C0833659F096
S1130520843681F40CC08BB380958BBB089588B35B
S1130530809588BB089585B3809585BB089582B363
S1130540809582BB0895843409F471C0853448F4DD
S1130550823499F1833408F04DC0813409F083C0AA
S11305600FC0823651F1833620F4813609F07BC006
S113057007C0833609F43EC0843609F074C057C0FE
S1130580413069F42BB381E090E0AC0102C0440F28
S1130590551F6A95E2F7BA01622B6BBB08952BB322
S11305A081E090E0AC0102C0440F551F6A95E2F768
S11305B0BA01609562236BBB0895413069F428B396
S11305C081E090E0AC0102C0440F551F6A95E2F748
S11305D0BA01622B68BB089528B381E090E0AC01B6
S11305E002C0440F551F6A95E2F7BA016095622371
S11305F068BB0895413069F425B381E090E0AC0113
S113060002C0440F551F6A95E2F7BA01622B65BB1D
S1130610089525B381E090E0AC0102C0440F551F5A
S11306206A95E2F7BA016095622365BB089541308B
S113063069F422B381E090E0AC0102C0440F551F7D
S11306406A95E2F7BA01622B62BB089522B381E096
S113065090E0AC0102C0440F551F6A95E2F7BA015D
S11306606095622362BB08956F70843451F18534C0
S113067038F48234C1F08334E8F4813441F50CC099
S1130680823689F0833618F4813609F505C083363D
S113069089F08436E1F415C08BB3807F8BBB8BB3B8
S11306A0682B6BBB089588B3807F88BB88B3682BA5
S11306B068BB089585B3807F85BB85B3682B65BB14
S11306C0089582B3807F82BB82B3682B62BB089596
S11306D06295607F843451F1853438F48234C1F0FA
S11306E08334E8F4813441F50CC0823689F08336D2
S11306F018F4813609F505C0833689F08436E1F4AF
S113070015C08BB38F708BBB8BB3682B6BBB0895F9
S113071088B38F7088BB88B3682B68BB089585B392
S11307208F7085BB85B3682B65BB089582B38F70CA
S113073082BB82B3682B62BB0895CF93C82F6FE04E
S11307400E941D028C2F64E041E00E94A3028C2FC2
S113075065E041E00E94A3028C2F66E041E00E9424
S1130760A3028C2F67E041E00E94A302CF91089579
S1130770CF92DF92FF920F931F93CF93DF93CDB766
S1130780DEB760970FB6F894DEBF0FBECDBFF82E6C
S1130790DE011196E0E6F0E080E101900D928150D7
S11307A0E1F7CC24DD248F2D6FE00E9434038F2DDC
S11307B06C2D40E00E94DA0010E0012F0C5F8F2DB9
S11307C0602F0E94B8018823B9F48F2D602F0E94F6
S11307D0B8018823D1F3F601EE0FFF1FEE0FFF1FC0
S11307E0E10FF11D81E090E08C0F9D1FE80FF91FD0
S11307F080818F3F21F00BC01F5F1430F1F6089405
S1130800C11CD11C94E0C916D10469F68FEF60961F
S11308100FB6F894DEBF0FBECDBFDF91CF911F910D
S11308200F91FF90DF90CF90089581E460E041E064
S11308300E94DA008FE99FE00197F1F700C0000001
S113084081E460E040E00E94DA008FE99FE00197D4
S1130850F1F700C000000895CF93C82F81E461E050
S113086040E00E94DA006C2F62956F7081E40E9470
S113087068030E94150481E46C2F0E9468030E949F
S113088015048FEC97E00197F1F700C00000CF91B9
S113089008958FEF91EEA4E081509040A040E1F7DD
S11308A000C0000081E464E041E00E94490081E46A
S11308B065E041E00E94490081E466E041E00E9475
S11308C0490081E467E041E00E94490081E460E07E
S11308D041E00E94490081E461E041E00E94490056
S11308E081E462E041E00E94490081E462E040E08A
S11308F00E94DA0082E00E942C04AFE1BEE411976A
S1130900F1F700C0000088E20E942C048FEC97E00D
S11309100197F1F700C000008EE00E942C04AFECB8
S1130920B7E01197F1F700C0000081E00E942C04A9
S11309308FE19EE40197F1F700C0000086E00E9479
S11309402C04AFECB7E01197F1F700C00000089554
S1130950CF93C82F81E461E041E00E94DA006C2F5C
S113096062956F7081E40E9468030E94150481E41B
S11309706C2F0E9468030E941504CF910895CF93B1
S1130980DF93EC018881882331F021960E94A8042A
S113099089918823D9F7DF91CF91089581E00E944E
S11309A02C048FE19EE40197F1F700C00000089544
S11309B0982F9150923068F4613158F4662349F0CD
S11309C0813019F4862F815802C0862F81540E94E9
S11309D02C040895803420F080E80E942C040895AB
S11309E080648F770E942C0408950E94490482E455
S11309F00E945D06A09AA19AA29AA39AA49AA59A83
S1130A0084E40E949D0380E061E00E949D0680E7EB
S1130A1090E00E94BF0482E061E00E94D8048DE768
S1130A2090E00E94BF0410E000E00F2EFEEAEF2EDB
S1130A30F0E0FF2EF02D0F2EF0E7CF2EF0E0DF2EAA
S1130A40F02D0F2EFDE7AF2EF0E0BF2EF02D0F2E70
S1130A50FCE88F2EF0E09F2EF02D0F2EF6E96F2E7E
S1130A60F0E07F2EF02D0F2EF2EA4F2EF0E05F2EF5
S1130A70F02D84E40E94B8038F3F09F483C08133CE
S1130A8009F065C00E94CE04C4010E94BF0481E045
S1130A9068E00E94D80484E40E94B803D82F8F3FF2
S1130AA0D1F30E94A80484E40E94B803C82F8F3FA6
S1130AB0D1F30E94A804DD0F0D2F000F000FD00FFB
S1130AC00D2F00510C0F0E94CE04C3010E94BF04DD
S1130AD081E06AE00E94D80484E40E94B803D82F1D
S1130AE08F3FD1F30E94A80484E40E94B803C82F66
S1130AF08F3FD1F30E94A804DD0F1D2F110F110F9A
S1130B00D10F1D2F10511C0F0E94CE04C2010E9450
S1130B10BF0481E06AE00E94D80484E40E94B80320
S1130B20D82F8F3FD1F30E94A80484E40E94B80315
S1130B30C82F8F3FD1F30E94A804DD0F8D2F880F9B
S1130B40880FD80FD051CD0FC093C60092CF0E940A
S1130B50CE04C7010E94BF048FEF94E3ACE0815040
S1130B609040A040E1F700C000000E94CE04C601FE
S1130B700E94BF0482E061E00E94D804C5010E9483
S1130B80BF0477CFA898A99AAA9AAB9AAC9AAD9ABF
S1130B90CAE0802F6C2F0E944807682FD92F82E467
S1130BA00E946106AFE0B7E21197F1F700C00000C0
S1130BB0A89AA998AA9AAB9AAC9AAD9A82E46D2F96
S1130BC00E9461068FE097E20197F1F700C00000F0
S1130BD0A89AA99AAA98AB9AAC9AAD9A812F6C2F2D
S1130BE00E944807682FD92F82E40E946106AFE073
S1130BF0B7E21197F1F700C00000A89AA99AAA9A3F
S1130C00AB98AC9AAD9A82E46D2F0E9461068FE096
S1130C1097E20197F1F700C00000A89AA99AAA9A4E
S1130C20AB9AAC98AD9A8091C6006C2F0E9448078D
S1130C30682F82E40E946106AFE0B7E21197F1F7F2
S1130C4000C00000A89AA99AAA9AAB9AAC9AAD9847
S1130C508091C6006C2F0E94480782E4692F0E948D
S1130C6061068FE097E20197F1F700C000008091E0
S1130C70C6008C3319F41F5F1092C6001C3321F494
S1130C800F5F1092C60010E0083109F0F2CE109206
S1130C90C60010E000E0EDCE1F920F920FB60F9247
S1130CA011248F938091C6008F5F8093C6008F912B
S1130CB00F900FBE0F901F9018956FEF0E941D02AA
S1130CC00895CF93DF93CDB7DEB72A970FB6F89484
S1130CD0DEBF0FBECDBFDE011196ECEBF0E09AE073
S1130CE001900D929150E1F7FE01E60FF11D618133
S1130CF00E943C022A960FB6F894DEBF0FBECDBF09
S1130D00DF91CF910895CF93C82F60E041E00E9416
S1130D1049008C2F61E041E00E9449008C2F62E081
S1130D2041E00E9449008C2F63E041E00E944900A9
S1130D30CF9108950E94340308956130C9F492B5A7
S1130D40986092BD95B5916095BD95B59D7F95BD13
S1130D5095B5946095BD95B59F7B95BD95B5977FE9
S1130D6095BD819584BD789489B7806489BF0895C1
S1130D7092B5986092BD95B5916095BD95B59D7FEE
S1130D8095BD95B5946095BD95B59F7B95BD95B57D
S1130D90977F95BD819584BD08956130C9F492B55E
S1130DA0986092BD95B5916095BD95B5926095BDDD
S1130DB095B5946095BD95B59F7B95BD95B59860A7
S1130DC095BD14BC83BD789489B7806889BF0895A4
S1130DD092B5986092BD95B5916095BD95B59260B8
S1130DE095BD95B5946095BD95B59F7B95BD95B51D
S1130DF0986095BD14BC83BD08958F9A95B5916094
S1130E0095BD95B5926095BD95B5946095BD95B524
S1130E109F7B95BD95B5986095BD95B5906195BD41
S1130E2095B59F7D95BD14BC83BD08958F9A95B5E6
S1130E30916095BD95B5926095BD95B5946095BD4D
S1130E4095B5906495BD95B5986095BD95B590613F
S1130E5095BD95B5906295BD14BC83BD08958F9AD8
S1130E6095B5916095BD95B5926095BD95B5946025
S1130E7095BD95B5906495BD95B5977F95BD95B590
S1130E80906195BD95B5906295BD14BC83BD0895E0
S1130E90991B79E004C0991F961708F0961B881FC8
S10F0EA07A95C9F780950895F894FFCF67
S1130EAC3738392F3435362A3132332B41303D2DF6
S1130EBC546F2073657420636C6F636B00506C65A6
S1130ECC617365207072657373203100486F75729D
S1130EDC733A202D2D004D696E757465733A202D6F
S1130EEC2D005365636F6E64733A202D2D00577279
S1130EFC6F6E672043686F69636521003F065B4F23
S1090F0C666D7D477F6F56
S9030000FC
