:100000000C942A000C9447000C9447000C94470071
:100010000C9447000C94B2060C9447000C944700D3
:100020000C9447000C9447000C9447000C94470034
:100030000C9447000C9447000C9447000C94470024
:100040000C9447000C9447000C9447000C94470014
:100050000C94470011241FBECFE5D8E0DEBFCDBF12
:1000600010E0A0E6B0E0E2E4F0E102C005900D92FD
:10007000AA36B107D9F710E0AAE6B0E001C01D9298
:10008000AB36B107E1F70E94DD040C941F080C9415
:10009000000040E00E94580008950E94C7010895A2
:1000A00041E00E94B202089540E00E94B202089529
:1000B000843409F471C0853448F4823499F183346E
:1000C00008F04DC0813409F083C00FC0823651F171
:1000D000833620F4813609F07BC007C0833609F4EB
:1000E0003EC0843609F074C057C0413069F42AB369
:1000F00081E090E0AC0102C0440F551F6A95E2F721
:10010000BA01622B6ABB08952AB381E090E0AC018A
:1001100002C0440F551F6A95E2F7BA016095622349
:100120006ABB0895413069F427B381E090E0AC01E7
:1001300002C0440F551F6A95E2F7BA01622B67BBF4
:10014000089527B381E090E0AC0102C0440F551F31
:100150006A95E2F7BA016095622367BB0895413062
:1001600069F424B381E090E0AC0102C0440F551F54
:100170006A95E2F7BA01622B64BB089524B381E06B
:1001800090E0AC0102C0440F551F6A95E2F7BA0136
:100190006095622364BB0895413069F421B381E026
:1001A00090E0AC0102C0440F551F6A95E2F7BA0116
:1001B000622B61BB089521B381E090E0AC0102C0E5
:1001C000440F551F6A95E2F7BA016095622361BB3F
:1001D0000895843409F471C0853448F4823499F167
:1001E000833408F04DC0813409F083C00FC08236DB
:1001F00051F1833620F4813609F07BC007C0833685
:1002000009F43EC0843609F074C057C0413069F427
:100210002BB381E090E0AC0102C0440F551F6A95FA
:10022000E2F7BA01622B6BBB08952BB381E090E03B
:10023000AC0102C0440F551F6A95E2F7BA01609500
:1002400062236BBB0895413069F428B381E090E0EC
:10025000AC0102C0440F551F6A95E2F7BA01622B48
:1002600068BB089528B381E090E0AC0102C0440F60
:10027000551F6A95E2F7BA016095622368BB08953D
:10028000413069F425B381E090E0AC0102C0440F35
:10029000551F6A95E2F7BA01622B65BB089525B335
:1002A00081E090E0AC0102C0440F551F6A95E2F76F
:1002B000BA016095622365BB0895413069F422B3A9
:1002C00081E090E0AC0102C0440F551F6A95E2F74F
:1002D000BA01622B62BB089522B381E090E0AC01C9
:1002E00002C0440F551F6A95E2F7BA016095622378
:1002F00062BB0895843409F43DC0853440F48234EF
:10030000F9F0833450F5813409F040C00CC08236D6
:10031000B9F0833618F48136C9F505C08336E9F0A3
:100320008436A1F527C02BB381E090E0AC0102C078
:10033000440F551F6A95E2F7BA0162276BBB089517
:1003400028B381E090E0AC0102C0440F551F6A95CC
:10035000E2F7BA01622768BB089525B381E090E017
:10036000AC0102C0440F551F6A95E2F7BA0162273B
:1003700065BB089522B381E090E0AC0102C0440F58
:10038000551F6A95E2F7BA01622762BB089584346B
:1003900009F44EC0853440F4823431F18334B0F531
:1003A000813409F057C00EC08236F1F0833620F454
:1003B000813609F04FC006C0833641F1843609F01A
:1003C00049C036C029B381E090E0062E02C0880FF4
:1003D000991F0A94E2F730E08223932302C0959597
:1003E00087956A95E2F7089526B381E090E0062E9E
:1003F00002C0880F991F0A94E2F730E0822393230A
:1004000002C0959587956A95E2F7089523B381E038
:1004100090E0062E02C0880F991F0A94E2F730E0A0
:100420008223932302C0959587956A95E2F70895F4
:1004300020B381E090E0062E02C0880F991F0A9435
:10044000E2F730E08223932302C0959587956A9561
:10045000E2F7089580E008958434D9F0853438F4C3
:10046000823499F0833498F48134A1F40CC082363C
:1004700061F0833618F4813669F405C0833639F0AB
:10048000843641F406C06ABB089567BB089564BB17
:10049000089561BB08958434D9F0853438F48234EA
:1004A00099F0833498F48134A1F40CC0823661F061
:1004B000833618F4813669F405C0833639F0843602
:1004C00041F406C06BBB089568BB089565BB0895F1
:1004D00062BB08958434D9F0853438F4823499F0BD
:1004E000833498F48134A9F40CC0823661F08336E9
:1004F00018F4813671F405C0833639F0843649F436
:1005000006C089B3089586B3089583B3089580B370
:10051000089580E00895843409F1853438F48234F4
:10052000A9F08334B8F48134E1F40CC0823671F060
:10053000833618F48136A9F405C0833659F0843621
:1005400081F40CC08BB380958BBB089588B38095E4
:1005500088BB089585B3809585BB089582B3809547
:1005600082BB0895843409F471C0853448F4823420
:1005700099F1833408F04DC0813409F083C00FC075
:10058000823651F1833620F4813609F07BC007C0F2
:10059000833609F43EC0843609F074C057C0413038
:1005A00069F42BB381E090E0AC0102C0440F551F09
:1005B0006A95E2F7BA01622B6BBB08952BB381E019
:1005C00090E0AC0102C0440F551F6A95E2F7BA01F2
:1005D000609562236BBB0895413069F428B381E0D4
:1005E00090E0AC0102C0440F551F6A95E2F7BA01D2
:1005F000622B68BB089528B381E090E0AC0102C093
:10060000440F551F6A95E2F7BA016095622368BBF3
:100610000895413069F425B381E090E0AC0102C057
:10062000440F551F6A95E2F7BA01622B65BB089526
:1006300025B381E090E0AC0102C0440F551F6A95DC
:10064000E2F7BA016095622365BB0895413069F411
:1006500022B381E090E0AC0102C0440F551F6A95BF
:10066000E2F7BA01622B62BB089522B381E090E009
:10067000AC0102C0440F551F6A95E2F7BA016095BC
:10068000622362BB08956F70843451F1853438F46D
:100690008234C1F08334E8F4813441F50CC08236F1
:1006A00089F0833618F4813609F505C0833689F060
:1006B0008436E1F415C08BB3807F8BBB8BB3682B82
:1006C0006BBB089588B3807F88BB88B3682B68BBF9
:1006D000089585B3807F85BB85B3682B65BB08957E
:1006E00082B3807F82BB82B3682B62BB0895629520
:1006F000607F843451F1853438F48234C1F083341E
:10070000E8F4813441F50CC0823689F0833618F460
:10071000813609F505C0833689F08436E1F415C0C9
:100720008BB38F708BBB8BB3682B6BBB089588B377
:100730008F7088BB88B3682B68BB089585B38F70B2
:1007400085BB85B3682B65BB089582B38F7082BB70
:1007500082B3682B62BB0895CF93C62F6FEF0E94C0
:100760004B028C2F6FE30E944B02CF9108950F93A1
:100770001F93CF93DF93CDB7DEB7C65BD0400FB6E4
:10078000F894DEBF0FBECDBF162FFE01319696EB5B
:10079000DF011D929A95E9F72FE331E13A8329832E
:1007A00026E031E03C832B832BE132E23E832D8334
:1007B0002FE032E238872F8326E232E23A87298718
:1007C00029E234E23C872B872DE332E23E872D87F6
:1007D00027E030E0388B2F872FE332E23A8B298BEA
:1007E0002FE232E23C8B2B8B27E332E2CD57DF4FF7
:1007F00039832883C358D0402FE83AE0CB57DF4FE6
:1008000039832883C558D04029E330E0C957DF4FEA
:1008100039832883C758D0402FE838E0C757DF4FC7
:1008200039832883C958D04029E330E2C557DF4FC8
:1008300039832883CB58D04021E330E2C357DF4FC0
:1008400039832883CD58D0402DE332E0C157DF4FA4
:1008500039832883CF58D04026E332E2CF56DF4F8A
:1008600039832883C159D04029E838E0CD56DF4F7D
:1008700039832883C359D0402EE130E0CB56DF4F77
:1008800039832883C559D04020E335E2C956DF4F6C
:1008900039832883C759D04028E330E0C756DF4F5B
:1008A00039832883C959D04026E731E0C556DF4F48
:1008B00039832883CB59D04026E734E0C356DF4F35
:1008C00039832883CD59D0402FE330E0C156DF4F24
:1008D00039832883CF59D04023E332E2CF55DF4F0D
:1008E00039832883C15AD0402FE334E0CD55DF4F00
:1008F00039832883C35AD04023E336E2CB55DF4FF8
:1009000039832883C55AD0402DE232E2C955DF4FE2
:1009100039832883C75AD04021E838E0C755DF4FD4
:1009200039832883C95AD0402EE330E0C555DF4FC4
:1009300039832883CB5AD04020E331E1C355DF4FC0
:1009400039832883CD5AD04026E334E1C155DF4FA7
:1009500039832883CF5AD04020E435E1CF54DF4F8C
:1009600039832883C15BD04020E439E0CD54DF4F88
:1009700039832883C35BD04029E031E1CB54DF4F7A
:1009800039832883C55BD04050E0440F551FE40FE6
:10099000F51F608101810E944B02812F602F0E9410
:1009A0004B02CA54DF4F0FB6F894DEBF0FBECDBF67
:1009B000DF91CF911F910F91089581E490E06FEF47
:1009C00070E00E942C0282E463E470E00E94AC03B9
:1009D00084E462E00E94490084E463E00E944900EC
:1009E00084E464E00E94490060E875E280E090E001
:1009F0000E94AE0780E061E00E9403070F2EF1E441
:100A0000EF2EF02D0F2EFCE0FF2EF02D00E0D0E0B9
:100A1000C0E01AE00F2EFCE0DF2EF02D0F2EF8E1E3
:100A2000CF2EF02D13C00F2EF1E4EF2EF02D0D2D53
:100A30000DC00F2EF0E5EF2EF02D0D2D07C00D2F60
:100A40000F2EF1E4EF2EF02D01C00D2F84E462E0B3
:100A50000E944D008823D1F58FE39CE90197F1F7BF
:100A600000C0000084E462E00E944D00882371F71A
:100A700084E462E00E944D008823D1F381E30E9468
:100A8000D1070E94D507D82F8F3F29F40E94D507A0
:100A9000D82F8F3FD9F30E94D507C82F8F3F29F455
:100AA0000E94D507C82F8F3FD9F30E94D5078093A6
:100AB0006A0080916A008F3F49F60E94D5078093B3
:100AC0006A0080916A008F3FC1F3C0CF84E463E085
:100AD0000E944D00882329F58FE39CE90197F1F7E7
:100AE00000C0000084E463E00E944D00882309F008
:100AF000ADCF84E463E00E944D008823D1F381E40C
:100B000090E066E070E040E050E00E94580081E430
:100B100090E067E070E040E050E00E945800FC2C5C
:100B200095CF84E464E00E944D00882329F58FE38B
:100B30009CE90197F1F700C0000084E464E00E94A2
:100B40004D00882309F082CF84E464E00E944D00C8
:100B50008823D1F381E490E066E070E041E050E06A
:100B60000E94580081E490E067E070E041E050E0CE
:100B70000E945800FD2C6ACF80E30E94D107D898CC
:100B8000D99ADA9ADB9ADC9ADD9ADE9ADF9A802F7C
:100B9000612F0E94F107482F092F82E463E470E07F
:100BA00050E00E94B7038FE097E20197F1F700C091
:100BB0000000D89AD998DA9ADB9ADC9ADD9ADE9A04
:100BC000DF9A82E463E470E0402F50E00E94B703B4
:100BD0008FE097E20197F1F700C00000D89AD99A08
:100BE000DA98DB9ADC9ADD9ADE9ADF9A8C2F612FF5
:100BF0000E94F107482F092F82E463E470E050E07F
:100C00000E94B7038FE097E20197F1F700C0000060
:100C1000D89AD99ADA9ADB98DC9ADD9ADE9ADF9A2A
:100C200082E463E470E0402F50E00E94B7038FE05D
:100C300097E20197F1F700C00000D89AD99ADA9AA2
:100C4000DB9ADC98DD9ADE9ADF9A80916A00612F48
:100C50000E94F107482F82E463E470E050E00E94B4
:100C6000B7038FE097E20197F1F700C00000D89A30
:100C7000D99ADA9ADB9ADC9ADD98DE9ADF9A80912B
:100C80006A00612F0E94F10782E463E470E0492F5B
:100C900050E00E94B7038FE097E20197F1F700C0A0
:100CA0000000D89AD99ADA9ADB9ADC9ADD9ADE9813
:100CB000DF9A82E463E470E04E2D50E00E94B703B7
:100CC0008FE097E20197F1F700C00000D89AD99A17
:100CD000DA9ADB9ADC9ADD9ADE9ADF9882E463E4A2
:100CE00070E04DE450E00E94B7038FE097E2019777
:100CF000F1F700C0000080916A008C3318F0CF5FDC
:100D000010926A00CC3320F0DF5F10926A00C0E0DE
:100D10009CE0F916F1F4D83150F010926A000F2ED1
:100D2000F1E4EF2EF02D0D2DD0E0C0E08FCEDD23CD
:100D300009F479CEDC3009F47CCE8D2F81508B30D4
:100D400008F47DCE0D2F0C500F2EF0E5EF2EF02D78
:100D50007DCED83108F479CE10926A0000E0D0E060
:100D6000C0E074CE1F920F920FB60F9211248F9392
:100D700080916A008F5F80936A008F910F900FBE01
:100D80000F901F9018956FEF0E942C020895CF933B
:100D9000DF93CDB7DEB72A970FB6F894DEBF0FBE4C
:100DA000CDBFDE011196E0E6F0E09AE001900D92F1
:100DB0009150E1F7FE01E60FF11D61810E944B02A7
:100DC0002A960FB6F894DEBF0FBECDBFDF91CF914C
:100DD0000895CF93C82F60E041E00E9458008C2F07
:100DE00061E041E00E9458008C2F62E041E00E94E7
:100DF00058008C2F63E041E00E945800CF91089585
:100E00000E94430308956130C9F492B5986092BD81
:100E100095B5916095BD95B59D7F95BD95B594604F
:100E200095BD95B59F7B95BD95B5977F95BD8195F2
:100E300084BD789489B7806489BF089592B598601D
:100E400092BD95B5916095BD95B59D7F95BD95B5C4
:100E5000946095BD95B59F7B95BD95B5977F95BDE4
:100E6000819584BD08956130C9F492B5986092BDB2
:100E700095B5916095BD95B5926095BD95B5946019
:100E800095BD95B59F7B95BD95B5986095BD14BCF6
:100E900083BD789489B7806889BF089592B59860BA
:100EA00092BD95B5916095BD95B5926095BD95B58E
:100EB000946095BD95B59F7B95BD95B5986095BDA2
:100EC00014BC83BD08958F9A95B5916095BD95B575
:100ED000926095BD95B5946095BD95B59F7B95BD88
:100EE00095B5986095BD95B5906195BD95B59F7D7B
:100EF00095BD14BC83BD08958F9A95B5916095BD3D
:100F000095B5926095BD95B5946095BD95B5906485
:100F100095BD95B5986095BD95B5906195BD95B514
:100F2000906295BD14BC83BD08958F9A95B591606C
:100F300095BD95B5926095BD95B5946095BD95B5F7
:100F4000906495BD95B5977F95BD95B5906195BD1C
:100F500095B5906295BD14BC83BD0895DC01CB01AD
:100F6000880F991FAA1FBB1F880F991FAA1FBB1F9D
:100F70009C01AD01220F331F441F551F220F331F49
:100F8000441F551F60E072E18AE790E00E94FD0770
:100F90002150304030BD29B9539A549A86E880BD1B
:100FA00008955D9BFECF8CB908955F9BFECF8CB1F9
:100FB0000895CF93DF93EC018881882379F02196FF
:100FC0000E94D1078FEF90E7A2E081509040A040AF
:100FD000E1F700C000008991882391F7DF91CF915C
:100FE0000895991B79E004C0991F961708F0961B85
:100FF000881F7A95C9F780950895A1E21A2EAA1B39
:10100000BB1BFD010DC0AA1FBB1FEE1FFF1FA217B8
:10101000B307E407F50720F0A21BB30BE40BF50BB5
:10102000661F771F881F991F1A9469F7609570953E
:10103000809590959B01AC01BD01CF010895F89476
:02104000FFCFE0
:0A1042003F065B4F666D7D477F6F30
:00000001FF
